:020000040800F2
:100000001007002005010008CD2C00083D23000842
:10001000312900083B0700081D34000800000000DB
:10002000000000000000000000000000D32C0008C9
:100030006D09000800000000CF2C0008DD2D00082D
:100040001F0100081F0100081F0100081F01000810
:100050001F010008D12C00081F0100081F01000823
:100060001F0100081F0100081F0100081F010008F0
:100070001F0100081F0100081F0100081F010008E0
:100080001F0100081F0100081F0100081F010008D0
:100090001F0100081F0100081F010008CB0900080C
:1000A0001F010008592E00084D2E0008412E00089F
:1000B000652E0008712E00087D2E00081F01000823
:1000C0001F0100081F0100081F0100081F01000890
:1000D0001F010008D93300081F010008E53300089C
:1000E000A50900081F0100081F010008DFF810D053
:1000F00000F002FB00480047E5350008AFF3008040
:10010000100700200648804706480047FEE7FEE744
:10011000FEE7FEE7FEE7FEE7FEE7FEE7FEE7FEE7B7
:100120003F2E0008ED000008202A04DB203A21FAC7
:1001300002F00021704721FA02F3D040C2F1200200
:100140009140084319467047D2B201E000F8012BF4
:10015000491EFBD270470022F6E710B513460A4647
:1001600004461946FFF7F0FF204610BDF0B480EAC0
:100170000102D40F4200B2EB410F02D20246084600
:1001800011464A0042D0C30DDDB2C1F3C752AD1AC9
:10019000202D35DAC1F3160141F4000204B15242B8
:1001A000C5F1200602FA06F12A411044B3EBD05FF4
:1001B00023D0C4B1012DA0EBC35009DCF0BC4FF03B
:1001C000004202EAC352DBB200F5000000F008BAB8
:1001D000400000F1807000EBC350A0F1807040EA55
:1001E000D170490009E0490841EAC071A0EBC35051
:1001F00000F50000400800EBC350F0BC00F0E7B988
:100200006142012202EB4101001BF6E7F0BC70479E
:1002100081F00041AAE780F00040A7E780EA0102F0
:1002200010B502F00043400022D04A001FD0010E5A
:1002300001EB1261C0F35600C2F3560240F4000015
:1002400042F40002A0FB022000047F39140400D015
:10025000401C50EA124001D44000491EC2B20C06B4
:1002600004EBD010401C4008802A02D003E000209C
:1002700010BD20F00100002900DA0020184310BD55
:1002800030B480EA010202F0004530F0004221F073
:10029000004013D090B1C30DD40DC2F31601C0F3CA
:1002A0001600E41A41F4000140F400027D3491424A
:1002B00001D3641C00E04900002C02DA30BC0020AD
:1002C00070474FF400000023914201D3891A034381
:1002D00040084FEA4101F7D151B1914202D14FF0AC
:1002E000004105E002D24FF0010101E06FF0010191
:1002F00003EBC450284430BC00F069B92DE9FE4F2F
:1003000081EA030404F0004421F0004100944FF01E
:10031000000B23F0004350EA01045ED052EA0304CC
:100320005BD0C3F30A54C1F30A552C44A4F2F3344E
:100330000194A0FB0254C1F3130141F48011C3F3F3
:10034000130343F4801301FB024400FB034E840AB1
:10035000970A44EA815447EA8357A4FB0768029549
:100360008D0A05FB07854FEA932C04FB0C542705E7
:10037000029D4FEA065847EA1637B5EB08056EEBC3
:10038000070C870E920E47EA811742EA8312A7FBF9
:100390000201B6EB0B0164EB00042B0D43EA0C33B6
:1003A0005E1844EB1C50DA465146E7FB0201C5F3E8
:1003B00013044FEA0B3343EA14534FEA0432019C0F
:1003C00043EA0603A4F10C040294009CCDE900B4B6
:1003D00000F043F903B0BDE8F08F00200146F9E7D3
:1003E0002DE9F04D81EA030404F0004B21F00045B3
:1003F00014464FF0000A23F0004150EA050220D0D5
:1004000054EA01021DD0C5F30A570246C5F313038F
:10041000C1F31300C1F30A5640F4801543F480136E
:10042000A7EB0608101BD64608F2FD3873EB050053
:1004300002D308F1010801E092185B41B8F1000F06
:1004400003DA00200146BDE8F08D00204FF4801152
:10045000064684460EE0171B73EB050705D3121BF7
:1004600063EB050306434CEA010C49084FEA3000F0
:1004700092185B4150EA0107EDD152EA030012D015
:1004800082EA040083EA0501084305D0101BAB4152
:1004900006D20122002306E000224FF0004302E0D2
:1004A0006FF0010253101AEB06004CEB085110EBF1
:1004B0000A0041EB0B01BDE8F04D00F0BFB870B58C
:1004C00021F0004303430CD0C1F30A550024D5EBBF
:1004D000040564EB0403D617AD1AB34102DB002018
:1004E000014670BD201841EB025170BD96230022D9
:1004F000114600F075B80EB540F23341029100216B
:10050000CDE900110A460B4600F0A7F803B000BD84
:1005100000F0004220F00040C10DC0F3160040F48E
:1005200000007F2901DA00207047962903DCC1F121
:100530009601C84001E096398840002AF4D0404234
:10054000704720F00040C10DC0F3160040F40000D9
:100550007F2901DA00207047962903DCC1F196015A
:10056000C840704796398840704701F0004330B466
:1005700021F0004150EA010206D00A0DA2F5607296
:10058000C1F31301002A02DC30BC00207047440F85
:1005900044EAC104C100E01830BC00EBC25000F0D6
:1005A00016B830B50B46014600202022012409E090
:1005B00021FA02F59D4205D303FA02F5491B04FA1C
:1005C00002F52844151EA2F10102F1DC30BD00291C
:1005D000A8BF7047401C490008BF20F001007047C9
:1005E00010B4B0FA80FC00FA0CF050EA010404BF29
:1005F00010BC704749B1CCF1200421FA04F411FA7F
:100600000CF118BF012121430843A3EB0C01CB1DC2
:100610004FEA00614FEA102042BF002010BC704733
:1006200000EBC35010440029A4BF10BC7047401C0D
:10063000490008BF20F0010010BC704710B5141E1F
:1006400073F1000408DA401C41F1000192185B418B
:100650001A4301D120F0010010BD2DE9F04D924662
:100660009B4611B1B1FA81F202E0B0FA80F2203279
:10067000904600F053F804460F4640EA0A0041EA6B
:100680000B0153465A46084313D0114653EA010062
:1006900019D0C8F140025046FFF746FD05460E4608
:1006A00050465946424600F039F8084305D001202B
:1006B00004E020463946BDE8F08D0020054346EAB7
:1006C000E0762C4337430A986305E40AA0EB080060
:1006D0000022FD0A44EA47540A3002D500200146B0
:1006E000E9E7010510196941DDE90845001969418B
:1006F000BDE8F04DA2E70000064C074D06E0E068BB
:1007000040F0010394E8070098471034AC42F6D358
:10071000FFF7F0FCD4360008F4360008202A04DB8A
:10072000203A00FA02F1002070479140C2F1200304
:1007300020FA03F3194390407047FEE72DE9F0419A
:10074000044600F0D7F8012802D00020BDE8F0816F
:1007500023A002F027FB012584F8005000F0BEF82A
:100760000128FBD102F0A2FA02F0E4F84FF4FA708B
:1007700000F0FDF81D4C0026DFF874800AE065717A
:10078000012700F095F8012816D098F8001009B15B
:1007900088F8006000F0B8F80128F0D115A002F048
:1007A00001FB02F08BFA667188F8005040F6B83011
:1007B00000F0DDF80120C9E7667102F02FFAC820C9
:1007C00000F0D5F800F074F810B1002FF4D1E1E793
:1007D00002F0B0F8C82000F0CAF802F0B1F9D9E789
:1007E0002F30303030332A4D5033000029000020A4
:1007F000000000202F30303030362A4D50330000BA
:100800002DE9F041054600F075F810B10020BDE873
:10081000F08122A002F0C6FA00242C70224D6C71E7
:1008200002F0FCF940F26C7000F0A1F802F082F8DE
:100830004FF4FA7000F09BF80127DFF870800AE0AF
:100840006F71012600F034F8012813D098F80110D8
:1008500009B188F8014000F057F80128F0D102F002
:100860002DFA6C7188F8017040F6B83000F07FF80E
:100870000120CCE76C7102F0D1F9C82000F077F8C4
:1008800000F016F810B1002EF4D1E4E702F052F8AF
:10089000C82000F06CF802F053F9DCE72F3030305C
:1008A00030352A4D50330000290000200000002080
:1008B00010B501F079FD01F06BFDC82000F057F88C
:1008C000044880690449884201DA012010BD0020F3
:1008D00010BD0000E80200200000104110B52021EA
:1008E000034800F0BFFA08B1002010BD012010BD80
:1008F000000C014010B500F087F8B0F57A7F01D9FF
:10090000012010BD002010BD2DE9F041154D4FF420
:100910008051284600F0A6FA04466914284600F0E3
:10092000A1FA07464FF48041284600F09BFA06469C
:100930004FF40041284600F095FA05464FF48071C7
:10094000094800F08FFABC4206D1B44204D1AC424F
:1009500002D1844200D114B10020BDE8F081012011
:10096000FBE70000000C014000080140704700B5A3
:1009700002464FF47A7302E0184600F003F8521E64
:10098000FAD200BD00EBC000C1004FF0E020416191
:1009900000218161052101610169C903FCD50421A0
:1009A0000161704710B54FF4805000F05FF94FF4CB
:1009B000005000F05BF94FF4804000F057F9BDE8BB
:1009C00010404FF4004000F051B94FF4807000F037
:1009D0004DB972B6FEE7000010B502F07BF904498C
:1009E00048600146BDE8104002A002F019BD0000B9
:1009F000300000205765696768745F4D616F7069EA
:100A00003A25640A0000000010B502F063F90A4CB0
:100A1000E061616888420CD8081AFFF767FDFFF7AC
:100A200077FD2062FFF762FD01F070FDFFF789FDA1
:100A300000E00020206210BD3000002010B590F8CA
:100A400021100022022905D00421816380F8202092
:100A5000012010BD01680B6823F00E030B600168D4
:100A60000B6823F001030B6090F84030C46B012148
:100A700001FA03F3636080F8211080F8202010460B
:100A800010BD000010B590F821100024022903D0F9
:100A90000421816301243DE001680A6822F00E020E
:100AA0000A6001680A6822F001020A601A4A0168B5
:100AB000914201D1012121E0174A1432914201D122
:100AC00010211BE0144A2832914201D1891515E00A
:100AD000114A3C32914201D189140FE00E4A503242
:100AE000914202D14FF4803108E00B4A64329142C6
:100AF00002D14FF4801101E04FF08071064A083AAC
:100B00005160012180F82110002180F82010416BF4
:100B100001B18847204610BD0800024070B5044668
:100B200000F0AAF90546601C02D00448007804448D
:100B300000F0A2F9401BA042FAD370BD04000020CF
:100B4000F8B50026384D394CB0F5005F2DD00CDCDF
:100B5000B0F5807F51D0B0F5805F3BD134A002F07A
:100B60005FFC2078012812D014E0B0F5804F32D01D
:100B7000B0F5004F2ED131A002F052FC6879002868
:100B800028D001F0D7FE00230122009648E06078CB
:100B9000401C6070687900281CD001F087FF00239A
:100BA0001A4619460120009612E027A002F038FCF0
:100BB0002078012802D16078401C60706879002894
:100BC00008D001F0BDFF00231A460121009628E05D
:100BD00002F0DCF8F8BD1FA002F022FC207801280A
:100BE00003D1607808B1401E607068790028F1D0A8
:100BF00002F002F80123009611E019A002F010FCA7
:100C00002078012803D1607808B1401E60706879AF
:100C10000028DFD001F0A6FF012000230090002271
:100C200000210020D4E7000029000020020000205D
:100C3000494F312CCFF2D7F3300A0000494F332C03
:100C4000D6B1D7DF0A000000494F322CCFF2D7F3DC
:100C5000310A0000494F342CCFF2D3D2310A0000C0
:100C6000494F352CCFF2D3D2300A0000044910B5D9
:100C70000A68024202D00860FFF762FF10BD000060
:100C8000140401402DE9F84FDFF8B8910024A9F1D0
:100C9000040B23460F2709F1040AABF1040EC9E047
:100CA0000125A5402A40AA427DD1674ED1F804C053
:100CB000ACEB0608B44532D014DCBCF1030F3AD0DB
:100CC00009DCBCF1000F2AD0BCF1010F1CD0BCF133
:100CD000020F31D11DE0BCF1110F17D0BCF1120F82
:100CE0002AD119E0B8F5881F19D006DCB8F5803F85
:100CF00015D0B8F5801F1FD111E0B8F5001F0ED038
:100D0000B8F5041F18D10AE0CB6815E0CB681B1DAD
:100D100012E0CB6808330FE0CB680C330CE08B6833
:100D20002BB1012B4FF0080303D0456104E00423ED
:100D300002E0056100E00023FF2A01D8064601E039
:100D400000F104064FEA840501D9A5F12005D6F883
:100D5000008007FA05FC28EA0C0803FA05F548EAC2
:100D60000508C6F800804D68ED0062D5374DAE69C4
:100D700046F00106AE61AD6924F0030605F00105F9
:100D80000095334D06EB050CDCF80850A607360F2E
:100D900007FA06F825EA0805DFF8B880404503D1D0
:100DA0004FF0000817E044E0DFF8AC80404502D186
:100DB0004FF001080FE0DFF8A480404502D14FF06A
:100DC000020808E0DFF89880404502D14FF00308A0
:100DD00001E04FF0040808FA06F848EA0508CCF8E4
:100DE00008804D68D9F80060ED024D4601D51643E4
:100DF00000E096432E604D68DAF80060AD0255467B
:100E000001D5164300E096432E604D68DBF8006084
:100E1000AD035D4601D5164300E096432E604D6854
:100E2000DEF80060ED03754601D5164300E09643F9
:100E30002E60641C0D682A46E5407FF431AFBDE8A2
:100E4000F88F00000804014000001110001002405B
:100E50000000014000080140000C0140001001406A
:100E6000001401408068084000D0012070470AB19A
:100E7000016170470904FBE7014880687047000082
:100E800004000020024881680278114481607047A4
:100E900004000020074810B5016841F0100101600E
:100EA000032000F07DF8002000F006F800F024F8A0
:100EB000002010BD0020024070B50D4D04464FF4D7
:100EC0007A712878B1FBF0F00A490968B1FBF0F0BB
:100ED00000F0E4FA48B9102C07D200222146501E37
:100EE00000F03EF800206C6070BD012070BD000075
:100EF0000400002010000020104808B5816941F06E
:100F000001018161816901F001010091C16941F034
:100F10008051C161C069002200F0805000901146EC
:100F2000052000F01DF8052000F00CF80448416889
:100F300021F0E06141F00071416008BD0010024005
:100F400000000140002809DB00F01F020121914050
:100F50004009800000F1E020C0F800117047000057
:100F6000F0B40E4B1B680C46C3F30223C3F1070514
:100F7000042D00D90425191D072901D2002300E002
:100F8000DB1E012606FA05F1491E214099409E40CC
:100F9000761E16403143F0BC02F052BA0CED00E070
:100FA000064900F0070208684FF6FF03184040EAC0
:100FB0000220034A10430860704700000CED00E077
:100FC0000000FA052DE9F0470F46050061D0434EB9
:100FD000306800F00700B84209D2306820F00700FE
:100FE00038433060306800F00700B84251D12868BB
:100FF0003B4C810712D5400703D5606840F4E060A0
:1010000060602878000703D5606840F46050606035
:101010006068A96820F0F000084360602878C00785
:1010200028D06868012810D02168022810D08907CC
:1010300000292EDA616821F0030101436160FFF7A6
:101040001BFF804641F288390DE021688903EFE7F4
:101050008901EDE7FFF710FFA0EB0801494502D930
:101060000320BDE8F0876068696800F00C00B0EB11
:10107000810FEFD1306800F00700B8420BD930681B
:1010800020F0070038433060306800F00700B842B5
:1010900001D00120E5E72878400705D56068E968B8
:1010A00020F4E060084360602878000706D5606897
:1010B000296920F4605040EAC100606000F038F80F
:1010C0006168084AC1F30311515CC84006490860D1
:1010D00006480068FFF7F0FE0020C2E7002002404B
:1010E00000100240BA36000810000020080000205E
:1010F0000448054900684968044AC1F30221515C6B
:10110000C84070471000002000100240CA36000896
:101110000448054900684968044AC1F3C221515C8A
:10112000C84070471000002000100240CA36000876
:101130000E4A51680E4801F00C03042B11D0082B05
:101140000FD10C48C1F38343C903C05C0AD5516871
:10115000084AC1F34041921E515C054A5043B0FB1E
:10116000F1F0704704494843704700000010024006
:1011700000127A00AA36000800093D002DE9F84F58
:10118000040070D02078C04DC00749D06868C0F313
:101190008100012807D06868C0F38100022809D1C6
:1011A0006868C00306D52868800339D560680028C0
:1011B000E7D035E06068B0F5803F0BD010B1B0F5F6
:1011C000A02F11D0286820F480302860286820F4EF
:1011D000802002E0286840F480302860606890B188
:1011E000FFF74AFE06460AE0286840F4802028609F
:1011F000F0E700BFFFF740FE801B642873D8286823
:101200008003F7D50CE0FFF737FE064605E000BF88
:10121000FFF732FE801B6428F0D828688003F7D4DB
:1012200020789A4E80074FF001094FF0000839D519
:10123000686810F00C0F07D06868C0F381000228BE
:1012400009D16868C00306D42868800714D52069CE
:10125000012808D110E02069B0B1C6F80090FFF76E
:101260000BFE074605E00AE1FFF706FEC01B022859
:10127000C4D828688007F7D52868616920F0F8008D
:1012800040EAC10028600DE0C6F80080FFF7F4FDD9
:10129000074604E0FFF7F0FDC01B022823D82868AA
:1012A0008007F7D4207800072CD57948A169D9B1F7
:1012B000C0F80090FFF7E0FD074604E0FFF7DCFD13
:1012C000C01B02280FD8686A8007F7D571484FF411
:1012D000FA510068B0FBF1F0009000BF0098411E89
:1012E0000091FAD20EE080E0C0F80080FFF7C4FD64
:1012F000074604E0FFF7C0FDC01B022875D8686AE6
:101300008007F7D42078400760D5E8690027C0003F
:1013100008D4E86940F08050E861E869012700F0EE
:10132000805000905C480168C90513D40168834669
:1013300041F480710160FFF79FFD824606E000BF27
:10134000FFF79AFDA0EB0A0064284ED8DBF80000F6
:10135000C005F5D5E06801280AD008B1052813D0EA
:10136000286A20F001002862286A20F0040002E0C8
:10137000286A40F001002862E06841F2883B98B199
:10138000FFF77AFD82460BE0286A40F004002862ED
:10139000EEE700BFFFF770FDA0EB0A0159455AD8F0
:1013A000286A8007F6D50CE0FFF766FD824605E067
:1013B000FFF762FDA0EB0A0159454CD8286A800767
:1013C000F6D41FB1E86920F08050E861E06988B385
:1013D0006968C1F38101022944D00228C6F86080FF
:1013E00004D0FFF749FD044638E034E0FFF744FD40
:1013F000074604E0FFF740FDC01B02282BD82868F1
:101400008001F7D4206AB0F5803F05D16868A168F3
:1014100020F4003008436860D4E908010843696893
:1014200021F4741108436860C6F86090FFF724FD4A
:10143000044606E025E000BFFFF71EFD001B022862
:1014400009D828688001F7D51BE000BFFFF714FD1D
:10145000001B022802D90320BDE8F88F286880010C
:10146000F4D40EE00128F7D06868226A00F48031D5
:10147000914204D1616A00F47010884201D00120C9
:10148000EAE70020E8E700000010024000004242C6
:1014900080044242100000200070004010B5401E41
:1014A000B0F1807F01D3012010BD4FF0E0246061D6
:1014B0000F21601701F0C4FF0020A0610720206108
:1014C000002010BD7047704770B590F83C20012A8D
:1014D00026D0012480F83C40022280F83D20036899
:1014E0005A689D6822F070060A6832435A600D4BB4
:1014F00002689A4208D0B2F1804F05D00A4B9A4256
:1015000002D00A4B9A4204D1496825F0800319435E
:10151000916080F83D40002180F83C10084670BD85
:10152000022070BD002C0140000400400008004073
:1015300010B5040003D094F83D0010B107E001207D
:1015400010BD002084F83C00204600F01FF8022067
:1015500084F83D00211D206801F096FC012084F8EC
:10156000460084F83E0084F83F0084F8400084F888
:10157000410084F8420084F8430084F8440084F871
:10158000450084F83D00002010BD000000B585B086
:101590000021009101910291039100681A4988424B
:1015A0002FD11A48816941F400618161816901F498
:1015B00000610491816941F004018161806969469B
:1015C00000F0040004904FF4006000901048FFF712
:1015D00059FB002202211920FFF7C2FC1920FFF756
:1015E000B1FC002202211A20FFF7BAFC1A20FFF7F3
:1015F000A9FC002202211B20FFF7B2FC1B20FFF7F1
:10160000A1FC05B000BD0000002C0140001002400C
:101610000008014090F83D10012901D001207047D9
:10162000022180F83D100168CA6842F00102CA60D8
:1016300000680B49884208D0B0F1804F05D00949B5
:10164000884202D00849884204D1816801F007012C
:10165000062903D0016841F00101016000207047B4
:10166000002C0140000400400008004070B5044612
:1016700090F83C000025012817D0012684F83C6032
:10168000022084F83D002068826822F0770222F46C
:101690007F4282600868502838D00DDC20284FD067
:1016A00005DC90B3102811D14AE0022070BD30282B
:1016B00046D040280AD13BE060282FD070280DD0BA
:1016C000B0F5805F03D0B0F5005F12D0012584F83B
:1016D0003D60002084F83C00284670BDCB68D1E90D
:1016E0000121206801F013FC2068816841F0770136
:1016F00009E0CB68D1E90121206801F008FC2068ED
:10170000816841F480418160E1E719E0CA68496875
:10171000206801F0B1FC5021206806E0CA684968E1
:10172000206801F0E7FC6021206801F0FAFBCEE7B9
:10173000CA684968206801F09FFC40212068F4E7EE
:10174000226801461046F0E700F042BE2DE9F04164
:10175000054690F83C0000260C46012810D00120D8
:1017600085F83C0072B1042A1CD0082A2CD00C2A1F
:1017700050D00126002085F83C003046BDE8F081BD
:101780000220FBE7D4E90012E368286801F086FC38
:101790002868816921F00C01816128688169A2684B
:1017A00011430FE0D4E90012E368286801F0B4FCAB
:1017B0002868816921F44061816128688169A26893
:1017C00041EA02218161D5E72868D4E9002C277B12
:1017D000036A016A21F480710162C16923F4007314
:1017E00021F0030141EA0C0121F0F00C39074FF41C
:1017F00000774CEA116107EA02221A43C1610262D2
:101800002868C16921F00C01C1612868C169A2681A
:1018100011432BE02868D4E90021E768036AD0F877
:1018200020C02CF4805CC0F820C0D0F81CC023F489
:1018300000532CF4407C4CEA012121F4704C4FF60B
:10184000FF7101EA07314FF4005741EA0C0107EA42
:1018500002321A43C16102622868C16921F4406101
:10186000C1612868C169A26841EA0221C16181E7BA
:1018700010B5040003D094F83D0010B107E001203A
:1018800010BD002084F83C00204600F01EF8022025
:1018900084F83D00211D206801F0F6FA012084F84B
:1018A000460084F83E0084F83F0084F8400084F845
:1018B000410084F8420084F8430084F8440084F82E
:1018C000450084F83D00002010BD704730B5044647
:1018D000002551B104290DD0082910D094F84100F9
:1018E00094F84520012811D10EE094F83E0094F8B8
:1018F0004220F7E794F83F0094F84320F2E794F889
:10190000400094F84420EDE7012A01D0012030BDC9
:10191000022059B1042912D0082919D084F84100B5
:1019200084F845000C2938D0012534E084F83E00C5
:1019300084F842002068C26842F0020210E084F895
:101940003F0084F843002068C26842F0040207E0C8
:1019500084F8400084F844002068C26842F008021D
:10196000C2600122206801F0C5FA0E492068884251
:1019700008D0B0F1804F05D00B49884202D00B4906
:10198000884204D1816801F00701062903D001686B
:1019900041F001010160284630BD2068C26842F074
:1019A0001002DDE7002C0140000400400008004068
:1019B00070B50446006801694FF00005C943890706
:1019C00015D4C168C943890711D4E91E01610120FA
:1019D0002077206880698007204602D0FFF7B4FE98
:1019E00004E000F0F3F8204600F0C8F925772068FD
:1019F0000169C943490717D4C168C943490713D4CA
:101A00006FF004010161022020772068806910F4E2
:101A1000407F204602D0FFF797FE04E000F0D6F8A2
:101A2000204600F0ABF9257720680169C943090712
:101A300016D4C168C943090712D46FF008010161C7
:101A4000042020772068C0698007204602D0FFF775
:101A50007BFE04E000F0BAF8204600F08FF925770D
:101A600020680169C943C90617D4C168C943C906BA
:101A700013D46FF010010161082020772068C0693D
:101A800010F4407F204602D0FFF75EFE04E000F035
:101A90009DF8204600F072F9257720680169C94356
:101AA000C90708D1C168C943C90704D1891E0161AA
:101AB000204600F0C9F920680169C943090609D424
:101AC000C168C943090605D46FF080010161204651
:101AD000FFF7F8FC20680169C943490609D4C168C9
:101AE000C943490605D46FF040010161204600F06A
:101AF000C2F920680169C94389060BD4C168C9438A
:101B0000890607D46FF0200101612046BDE87040CE
:101B1000FFF7D9BC70BD000010B586B00021009160
:101B20000191029103910368224A0221B3F1804F8F
:101B30001DD0214C2148A34228D1936943F00803CA
:101B400093619269039102F0080204921022CDE998
:101B500000216946FFF796F81948416821F4406171
:101B600041F0E06141F40061416006B010BD906950
:101B700040F0040090619069039100F0040004902B
:101B80000320CDE9000169460E480FE00E4CA34248
:101B9000EBD1936943F0080393619269039102F0DA
:101BA00008020492C022CDE900216946FFF76AF8D5
:101BB000DBE700000010024000040040000C014080
:101BC000000001400008014000080040704770B567
:101BD000044690F83C0000260D4601280FD0012055
:101BE00084F83C006AB1042A1DD0082A2FD00C2AA0
:101BF0003FD00126002084F83C00304670BD022012
:101C000070BD206801F096F92068816941F00801F3
:101C100081612068816921F0040181612068816906
:101C20002A69114311E0206801F0ACF9206881694C
:101C300041F4006181612068816921F480618161E2
:101C4000206881692A6941EA02218161D2E720681E
:101C500001F0C4F92068C16941F00801C161206840
:101C6000C16921F00401C1612068C1692A69114379
:101C700011E0206801F0DEF92068C16941F40061DB
:101C8000C1612068C16921F48061C1612068C169B6
:101C90002A6941EA0221C161ACE710B5040003D012
:101CA00094F83D0010B107E0012010BD002084F839
:101CB0003C00204600F01EF8022084F83D00211D63
:101CC000206801F0E1F8012084F8460084F83E0025
:101CD00084F83F0084F8400084F8410084F8420012
:101CE00084F8430084F8440084F8450084F83D00FB
:101CF000002010BD08B501681D48B1F1804F11D01A
:101D00001C4A91421DD1C16941F00201C161C06903
:101D1000002200F00200009002211D20FFF720F9B0
:101D20001D201FE0C16941F00101C161C0690022AD
:101D300000F00100009002211C20FFF711F91C2087
:101D400010E00D4A914211D1C16941F00401C16115
:101D5000C069002200F00400009002211E20FFF75D
:101D6000FFF81E20BDE80840FFF7ECB808BD0000F2
:101D700000100240000400400008004070470000CE
:101D800030B500250446022249B1042912D00829A1
:101D90003ED094F84100012845D0012030BD94F890
:101DA0003E000128F9D184F83E202068C26842F044
:101DB000020209E094F83F000128EED184F83F20A8
:101DC0002068C26842F00402C2600122206801F06B
:101DD00091F81A492068884203D1426C42F40042CB
:101DE00042642068884208D0B0F1804F05D0144981
:101DF000884202D01349884204D1816801F007016A
:101E0000062903D0016841F001010160284630BD78
:101E100094F840000128C0D184F840202068C268AE
:101E200042F00802D0E784F841200C2901D00125B6
:101E3000ECE72068C26842F01002C5E7002C0140C0
:101E4000000400400008004000F054BB024600209F
:101E500041B1042909D008290AD00C2901D1106800
:101E6000006C70471068406B70471068806B70475B
:101E70001068C06B7047704770477047F8B50168CD
:101E800004460868CA684B6910F00F0F4FF0000550
:101E900059D003F0010602F49077374365D0C107AB
:101EA00005D0D10503D5616C41F0010161644107A2
:101EB00005D5D90703D0616C41F002016164810747
:101EC00005D5D90703D0616C41F0040161640107B5
:101ED00007D502F02001314303D0616C41F00801C5
:101EE0006164616C00293AD0800604D5900602D561
:101EF000204601F05BF920684069616CC0F38010F6
:101F0000090700D460B3204601F029F92068406930
:101F1000400621D52068143050E8001F21F0400110
:101F200040E80012002AF5D1E06BA8B16D49416389
:101F3000E06BFEF7A7FD002811D0E06B416B01B00C
:101F4000BDE8F040084783060FD593060DD520461F
:101F5000BDE8F84001F02AB92046FFF78EFFF8BD32
:101F60002046FFF78AFF6564F8BD266B2023012E0B
:101F70007CD1C6067AD5D60678D508684868009020
:101F800048694FF00206400640D5E16B086840689A
:101F90000004000CE8D0A28D8242E5D9E085886972
:101FA00020282DD020680C3050E8001F21F48071CB
:101FB00040E80012002AF5D12068143050E8001FD4
:101FC00021F0010140E80012002AF5D12068143008
:101FD00050E8001F21F0400140E80012002AF5D12E
:101FE00084F84230256320680C3050E8001F21F04F
:101FF000100140E80012002AF5D1E06BFEF71EFD4B
:102000006663A08DE18D401A81B22AE0A08DE18D3A
:10201000401A81B2E08D0028A6D00029A4D0226801
:102020000C3252E8000F20F4907042E80007002FB5
:10203000F5D12068143050E8002F22F0010240E86A
:102040000027002FF5D184F84230256320680C303A
:1020500050E8002F22F0100240E80023002BF5D1B9
:1020600066632046FFF708FFF8BDFFE705062BD59E
:10207000150629D594F841002128F5D1A068B0F5BE
:10208000805F01D12069B0B1206A411C21622168C2
:1020900000784860E08C401E0004000CE084E3D12E
:1020A0002068C16821F08001C1602068C16841F0EA
:1020B0004001C160D8E7206A0088C0F3080048608A
:1020C000206A801C2062E5E74006CDD55006CBD5BE
:1020D000CA68204622F04002CA6084F8413000F00D
:1020E0002CF9C1E74F31000870B5040004D094F812
:1020F0004100002510B106E0012070BD84F8405079
:10210000204600F023F8242084F841002068C168AC
:1021100021F40051C160204601F0AAF8206801694D
:1021200021F4904101612068416921F02A01416157
:102130002068C16841F40051C1606564202084F8C2
:10214000410084F842006563002070BD70B586B020
:102150000024009401940294039403682E482D4EA9
:10216000022103220515B34226D1836943F480433B
:102170008361836903F480430493836943F0040318
:1021800083618069254E00F0040004900802CDE9C7
:102190000001039269463046FEF774FDCDE9005414
:1021A000694630460294FEF76DFD00221146252057
:1021B000FEF7D6FE252028E0194EB34227D1C36989
:1021C00043F48023C361C36903F4802304938369C8
:1021D00043F0080383618069CDE9005100F00800F5
:1021E000CDE903200F4D69462846FEF74BFDE81464
:1021F000CDE90004694628460294FEF743FD00221B
:1022000011462720FEF7ACFE2720FEF79BFE06B006
:1022100070BD00000038014000100240000801407D
:1022200000480040000C014090F84230202B01D0C3
:102230000220704721B11AB10023036301F074B882
:102240000120704770B50446124884420ED1124DE9
:10225000FF230122691C114800F022F8284601F0F2
:10226000CFF80122691C0B48FFF7DEFF0B488442C0
:102270000ED1094CFF236C340122611C054800F08B
:102280000FF80122611CBDE870400448FFF7CCBF85
:1022900070BD00008001002010020020C801002055
:1022A0002DE9F843044690F841001F4616460D46B6
:1022B000202802D00220BDE8F8837DB176B100204D
:1022C0006064212084F84100FEF7D6FDA684804694
:1022D000E684A068B0F5805F02D003E00120EAE761
:1022E000206910B12E4600250EE000260CE080216A
:1022F000204601F034F8A0B9AEB116F8010B216800
:102300004860E08C401EE084E08C43464FF00002C1
:1023100000970028EBD14FF04001204601F01FF854
:1023200030B10320C7E735F8020BC0F30800E6E739
:10233000202084F841000020BDE77047FEE7000040
:1023400070B5124A054640685060E86890600C001D
:102350002868C2E9070406D0042C06D0082C06D051
:102360000C2C06D008E0012004E0022002E004204A
:1023700000E0082082F824002846FFF74BF92146A8
:102380002846BDE87040FFF7A1BA0000E80200202F
:102390000348826903498A4200DB81618069704792
:1023A000E80200200000E14370B50122074D14034C
:1023B00021462846FEF75BFD0A20FEF7E3FA214698
:1023C0002846BDE870400022FEF751BD00080140DC
:1023D00070B5444D04460068E96988423AD1207FCF
:1023E00095F82410884235D129462878096A0026B4
:1023F00088B301282ED12046FFF728FD6988AA68F6
:1024000001FB02002861E968401A6861FEF773F871
:102410000022354BFDF7E4FF0022344BFDF76EFF41
:10242000721EFEF74CF80022314BFDF767FFFEF7F6
:102430009CF8A8612E70286A88B304284AD008281E
:102440002068016A4BD021F400510162286A20689B
:10245000016A016270BDFFE72046FFF7F7FCE86004
:10246000286AB8B104281BD008282068016A1CD04B
:1024700021F400510162286AD0B104281DD0082837
:102480002068016A1ED041F4005101626E80012073
:102490002870DFE72068016A21F00A01EAE714E00A
:1024A0002068016A21F0A001E4E721F40071E1E76E
:1024B0002068016A41F00201E7E72068016A41F003
:1024C0002001E2E741F40071DFE72068016A21F0B2
:1024D0000A01BAE72068016A21F0A001B5E721F4FA
:1024E0000071B2E7E802002080842E410040754070
:1024F0000000594001680448C269914202D14188F4
:10250000491C418070470000E80200202DE9F0419D
:10251000144C8046E768A7626169A068FDF726FE53
:1025200060620646A169FDF721FE01463046FDF7CF
:10253000A7FE0546206139464046FDF769FE29465B
:10254000FDF76CFE3946FDF711FE0746E0603146A7
:102550002846FDF763FE3146FDF75DFEA060384674
:10256000BDE8F081300000202DE9F04F85B0002457
:102570004C480094019402940394816941F0100145
:102580008161816901F010010491816941F02001AC
:102590008161816901F020010491816941F00401A8
:1025A0008161816901F004010491816941F00801B0
:1025B00081618069DFF8F09000F00800049000224B
:1025C0004FF4C0414846FEF752FCDFF8E0A049F264
:1025D000F007002239465046FEF749FCDFF8D0B03C
:1025E00040F20B28002241465846FEF740FC4FF4CB
:1025F000005001250226CDE90005CDE902466946D5
:102600004846FEF73FFBA803CDE90005CDE9025699
:1026100069464846FEF736FBE8038DE83100694617
:102620004846FEF72FFB00970396CDE90154694613
:102630005046FEF727FBCDF800800396CDE9015404
:1026400069465846FEF71EFB1A4E4FF47040CDE91E
:102650000006694602945846FEF714FB2802CDE9AD
:102660000006694602945046FEF70CFB4FF490704A
:102670008DE8310069465846FEF704FB002203212D
:102680001720FEF76DFC1720FEF75CFC00220321EB
:102690002820FEF765FC2820FEF754FC05B0BDE8B5
:1026A000F08F0000001002400010014000080140BF
:1026B000000C01400000311010B58AB000242348FE
:1026C0000494059406940794089409940094019442
:1026D00002941D49039401604721C0E901144FF69B
:1026E000FF71C0E9031444618461FEF721FF08B162
:1026F000FEF76FF94FF48050049004A91348FEF7D9
:10270000B5FF08B1FEF765F91048FFF7B1F808B159
:10271000FEF75FF9089408A90C480994FEF7D4FE67
:1027200008B1FEF756F90120CDE9004002940C22D1
:10273000694606480394FFF709F8002801D0FEF720
:1027400048F90AB010BD0000002C014060000020D4
:1027500010B58AB0002407941C2168460894FDF740
:10276000FAFC19484FF0804101604721C0E901148B
:102770006321C0E903148461FFF78FFA08B1FEF703
:1027800028F9079407A910480894FEF79DFE08B1A0
:10279000FEF71FF96020CDE900040294002269468B
:1027A00009480494FFF713FA08B1FEF712F904225E
:1027B00069460548FFF70BFA08B1FEF70AF9024827
:1027C000FFF7AAF90AB010BDA800002010B58AB022
:1027D000002407941C2168460894FDF7BCFC1748A8
:1027E0001549016040F2CF71C0E9011440F2CF21D8
:1027F000C0E903148461FFF750FA08B1FEF7E9F865
:10280000079407A90D480894FEF75EFE08B1FEF78D
:10281000E0F8602000903220CDE9010400226946F2
:1028200006480494FFF7D3F908B1FEF7D2F803483D
:10283000FFF772F90AB010BD00040040F00000205C
:1028400010B58AB0002407941C2168460894FDF74F
:1028500082FC1A48184901604721C0E9011463212C
:10286000C0E903148461FFF718FA08B1FEF7B1F864
:10287000079407A911480894FEF726FE08B1FEF751
:10288000A8F86020CDE900040294002269460B48B4
:102890000494FFF79CF908B1FEF79BF804226946FF
:1028A0000648FFF794F908B1FEF793F80348FFF7DD
:1028B00033F90AB010BD00000008004038010020C4
:1028C0000C4810B50A4901604FF4E1314160002124
:1028D00081600C22C160C0E904128161C161FFF70F
:1028E00003FC002803D0BDE81040FEF772B810BD0D
:1028F00000380140800100200C4810B50A490160F1
:102900004FF416514160002181600C22C160C0E982
:1029100004128161C161FFF7E7FB002803D0BDE825
:102920001040FEF756B810BD00480040C801002016
:10293000FEE7000070B500226321274800F01CFA72
:10294000254C00226321601C00F016FA002263214E
:10295000A01C00F011FA00226321E01C00F00CFA28
:102960001E482178026851630068617881631C48C1
:10297000A178026851630068E1788163194C0122F3
:1029800008212046FEF773FA174D00224FF400414C
:102990002846FEF76CFA012280212846FEF767FAE6
:1029A000002240212846FEF762FA01220221204639
:1029B000FEF75DFA002201212046FEF758FA0122B7
:1029C00010212846FEF753FA2846BDE87040002241
:1029D0002021FEF74CBA000016000020380100202C
:1029E000A8000020000C01400008014070B52948F3
:1029F000FEF710FE00212748FFF7C2F92648FEF730
:102A000009FE00212448FFF7BBF904212248FFF703
:102A1000B7F92248FEF7FEFD00212048FFF7B0F984
:102A200004211E48FFF7ACF9012251031C48FEF7B0
:102A30001EFA1C4C00224FF400412046FEF717FA04
:102A4000194D012208212846FEF711FA01228021A2
:102A50002046FEF70CFA002240212046FEF707FA36
:102A6000012210212046FEF702FA002220212046F2
:102A7000FEF7FDF9002201212846FEF7F8F90122B0
:102A800002212846FEF7F3F9BDE870404FF4FA70D2
:102A9000FEF744B8F0000020A80000203801002014
:102AA0000010014000080140000C014070B50122F7
:102AB00051031E48FEF7DBF91D4A63201168486385
:102AC0001268052191631B4A136859631168886372
:102AD000194C012208212046FEF7C9F9174D0022A2
:102AE0004FF400412846FEF7C2F901228021284612
:102AF000FEF7BDF9002240212846FEF7B8F9012271
:102B000002212046FEF7B3F9002201212046FEF7FC
:102B1000AEF9012210212846FEF7A9F92846BDE8A2
:102B2000704000222021FEF7A2B9000000100140F1
:102B300038010020A8000020000C014000080140DE
:102B4000064A632011684863126814219163044A9D
:102B500013685963116888637047000038010020CA
:102B6000A800002070B5012251031E48FEF77FF92E
:102B70001D4A0520116848631268632191631B4A4E
:102B80001368596311688863194C01220821204693
:102B9000FEF76DF9174D00224FF400412846FEF76D
:102BA00066F9012280212846FEF761F900224021C2
:102BB0002846FEF75CF9012202212046FEF757F96C
:102BC000002201212046FEF752F901221021284659
:102BD000FEF74DF92846BDE8704000222021FEF79F
:102BE00046B900000010014038010020A800002074
:102BF000000C014000080140064A14201168486397
:102C0000126863219163044A1368596311688863E9
:102C10007047000038010020A800002070B5012294
:102C200051031D48FEF723F91C4963200A685063CD
:102C3000096888631A490A68506309688863194CEF
:102C4000002208212046FEF712F9174D0122D10378
:102C50002846FEF70CF9012280212846FEF707F9E5
:102C6000002240212846FEF702F9012202212046D7
:102C7000FEF7FDF8002201212046FEF7F8F80022B9
:102C800010212846FEF7F3F82846BDE870400122DF
:102C90002021FEF7ECB800000010014038010020B0
:102CA000A8000020000C014000080140012251034F
:102CB0000148FEF7DCB800000010014000224FF48C
:102CC00000510148FEF7D3B800100140FEE77047FD
:102CD000704770472DE9F0470220FDF753FE254D60
:102CE0004FF40078002241462846FEF7C0F8002441
:102CF0000220FDF747FEAF1539462846FEF7B2F829
:102D00000028F9D10026B946012247464146284607
:102D1000FEF7ADF80220FDF735FE640000223946CB
:102D20002846FEF7A4F80220FDF72CFE4946284667
:102D3000FEF798F800B1641C0220FDF723FE761C14
:102D4000F6B2182EE0D30122464641462846FEF749
:102D50008EF80220FDF716FE84F4000400223146AE
:102D60002846FEF784F80220FDF70CFE2046BDE859
:102D7000F0870000000C014003788B4200D90170FD
:102D80000178914200D202707047000030B5044CC7
:102D9000039D20706170A270E370257130BD00004A
:102DA0002900002030B4002211460A4B01E00A2914
:102DB00002D25D18445C2C715C5C491CC9B222448F
:102DC0000E29F4D39A73FF2330BC0F220149024825
:102DD000FFF766BA1A000020C8010020FEF752B8BB
:102DE00030B58FB028216846FDF7B5F914210AA83F
:102DF000FDF7B1F901210804CDE900100024029487
:102E000002250491CDE907504FF4E010099068467F
:102E1000FEF7B4F908B172B6FEE70F20CDE90A0556
:102E20004FF48060CDE90C4002210AA80E94FEF711
:102E3000C9F8002801D072B6FEE70FB030BD704768
:102E40000148FEF7B5BD0000600000200148FEF714
:102E5000AFBD0000600000200148FEF7A9BD0000E2
:102E6000600000200148FEF7A3BD0000A80000207C
:102E70000148FEF79DBD0000F00000200148FEF76C
:102E800097BD000038010020F0B50268164B174CC2
:102E9000174D4FF08047984205D0B84203D0A0426A
:102EA00001D0A84203D122F070064A68324398420A
:102EB00005D0B84203D0A04201D0A84203D122F4E9
:102EC0004074CA6822434C6922F0800222430260A7
:102ED0008A68C2620A688262984201D10969016304
:102EE00001214161F0BD0000002C014000040040C0
:102EF0000008004010B501F01F030121046A994049
:102F00008C430462016A9A401143016210BD10B5FE
:102F1000846842EA032224F47F440A432243826005
:102F200010BD826822F070020A4342F007018160FE
:102F30007047000030B5036A026A22F001020262A3
:102F40004268846924F073050C682C4323F0020561
:102F50008B682B430A4DA8420BD123F00805CB68A0
:102F600022F440722B434D6923F0040315438A6910
:102F70002A434260846149684163036230BD0000B6
:102F8000002C014030B5026A036A23F0100303628B
:102F9000436884690D6824F4E64444EA05248D6896
:102FA00022F0200242EA05120B4DA8420ED1CD6854
:102FB00022F0800242EA05124D6923F4406343EA9D
:102FC00085038D6922F0400243EA850343608461F2
:102FD00049688163026230BD002C014030B5036A4C
:102FE000026A22F4807202624268C46923F40073A8
:102FF00024F073050C682C438D6843EA05230C4DBF
:10300000A8420ED1CD6823F4006343EA05234D693D
:1030100022F4405242EA05128D6923F4806342EAA9
:1030200005124260C4614968C163036230BD00009B
:10303000002C014030B5046A026A22F48052026218
:103040004268C3690D6823F4E64343EA05238D68AB
:1030500024F4005444EA0534064DA84204D14D69D5
:1030600022F4804242EA85124260C36149680164E9
:10307000046230BD002C014010B5036A046A24F0DC
:1030800001040462846924F0F00444EA021423F089
:103090000A020A438461026210BD000070B5056A2D
:1030A000046A24F00104046284690F4EB04208D01F
:1030B000B0F1804F05D00D4EB04202D00C4EB04260
:1030C00003D124F00304144301E044F001041A077F
:1030D00024F0F00444EA126225F00A0301F00A0128
:1030E00019438261016270BD002C01400004004060
:1030F0000008004010B5036A046A24F0100404625A
:10310000846923F0A00324F4704444EA023243EAC1
:1031100001118261016210BD30B5046A056A25F0B3
:1031200010050562856925F4407545EA022222F4FE
:1031300070454FF6FF7202EA033224F0A0032A43DF
:10314000A02404EA011119438261016230BD10B567
:10315000406A0021C185C184FEF78FFE10BD016861
:103160000C3151E8002F22F4907241E80023002B2B
:10317000F5D10168143151E8002F22F0010241E835
:103180000023002BF5D1016B012909D101680C3115
:1031900051E8002F22F0100241E80023002BF5D166
:1031A000202180F8421000210163704708B590F893
:1031B0004210222901D0022008BD82684FF48053BA
:1031C0009A4201D1016921B1816A9A421BD04AB168
:1031D0000AE00268816A5268C2F308020A80816AC2
:1031E000891C08E0026972B10268526802F07F022D
:1031F0000A70816A491C8162C18D491E0904090C4B
:10320000C18503D01BE002685268F1E70168CA6813
:1032100022F02002CA600168CA6822F48072CA6083
:1032200001684A6922F001024A61202180F84210B7
:1032300000214163026B012A03D0FFF703F800204D
:1032400008BD016301680C3151E8002F22F0100223
:1032500041E80023002BF5D101680A68D20602D5A7
:103260000A6849680091818DFEF706FEE7E70000D5
:1032700070B5044600680169E26821F440511143C9
:1032800001612169A0680843616908432168CA682F
:1032900041F20C639A430243CA6020684169A26903
:1032A00021F44071114341611E492068884202D1D6
:1032B000FDF72EFF01E0FDF71BFF00EBC00101EB66
:1032C0000012606864218000B2FBF0F3B3FBF1F3FD
:1032D0006FF018067343B2FBF0F5B2FBF0F605EBA6
:1032E0008305322303EB0515B5FBF1F5B6FBF1F6CB
:1032F00005F0F00505EB0615B2FBF0F6B2FBF0F0B9
:10330000B0FBF1F06FF01802504306EB800003EBC6
:103310000010B0FBF1F0216800F00F002844886035
:1033200070BD00000038014081628285C2850021A5
:103330004164222180F84210016921B10168CA6804
:1033400042F48072CA6001684A6942F001024A612F
:103350000068C16841F02001C160002070472DE97C
:10336000F041984617460E460446069D27E0681C25
:1033700025D02DB1FDF780FDA0EB0800A8421ED995
:1033800020680C3050E8001F21F4D07140E8001292
:10339000002AF5D12068143050E8001F21F0010107
:1033A00040E80012002AF5D1202084F8410084F87A
:1033B0004200002084F840000320BDE8F08120682E
:1033C000006836EA000004D00020B842CFD00020C8
:1033D000F3E70120F9E700000148FEF74FBD0000C8
:1033E000800100200148FEF749BD0000C80100200F
:1033F0008AB20146FF230148FEF752BF8001002038
:103400006C21FCF7A8BE10B50C460122491CFEF742
:103410000BFF2046BDE81040FFF7F2BFFEE70000BB
:103420000FB4054B10B503A9044A029800F028F820
:1034300010BC5DF814FB0000D53500085C000020CE
:103440000907090E002804DB00F1E02080F80014D1
:10345000704700F00F0000F1E02080F8141D704765
:1034600002E008C8121F08C1002AFAD1704770474D
:10347000002001E001C1121F002AFBD170470000AB
:103480002DE9FF4F89B09B460446002506E025281C
:103490000BD05A460B999047641C6D1C207800286D
:1034A000F5D10DB02846BDE8F08F0027B8460122BF
:1034B000474900E0074314F8013F203B02FA03F0BC
:1034C0000842F7D120782E2819D114F8010F47F0BF
:1034D00004072A280ED06FF02F022078A0F13001C7
:1034E00009290CD808EB880102EB410100EB010827
:1034F000641CF2E70A98641C50F8048B0A90207848
:103500000028CED0642808D0692806D075281ED09F
:103510005A460B9990476D1C58E00A994FF00A09DA
:1035200001C90A91002802DA40422D2102E0390542
:1035300004D52B218DF82010012103E0F90704D0D8
:103540002021F7E78A4608AE0DE00021FAE70A9944
:103550004FF00A0901C90A91F7E74946FDF721F83A
:10356000303106F8011D0028F7D1ADEB060000F15F
:103570002009780701D44FF00108C84502DDA8EB07
:10358000090000E000208046002706E008A85A460F
:10359000C05D0B9990476D1C7F1C5745F6DB04E01E
:1035A00030205A460B9990476D1CB8F10001A8F1E4
:1035B0000108F5DC05E016F8010B5A460B99904717
:1035C0006D1CB9F10001A9F10109F4DC641C65E787
:1035D0000928010013B501216846FFF709FF00988B
:1035E0001CBD000008B5FDF755FCFFF7F9FBFEF721
:1035F000BBFFFFF7EBF8FFF763F9FFF77DF9FFF784
:10360000A7F8FFF759F8FFF71BF9FFF7EFF91B4988
:103610001B48FFF7F8FE1B491B48FFF7F4FE0C217F
:103620001A48FEF78DFE1AA0FFF7FAFEFFF7DEF943
:10363000FDF7D2F96420FDF79AF9FDF7CDF94FF4C3
:10364000FA60FDF794F91549134888611449002080
:1036500048711449487008708DF8000003E000BFFD
:103660009DF8000030B96846FDF768F89DF8000045
:103670000028F5D06846FDF7C3F8F1E710020020F6
:10368000800100207C020020C80100206000002092
:1036900053544152540A00000000A041E8020020A7
:1036A0002900002002000020010202030405060791
:1036B00008090A0B0C0D0E0F10100000000000008E
:1036C00000000102030406070809000000000102CF
:1036D00003040000F4360008000000206000000031
:1036E000603400085437000860000020B006000075
:1036F000703400080101000001000000100000000B
:10370000000000000024F4001E0063636363AA0845
:103710000B0200000000000000000000000000009C
:10372000000000000000000094A87E000000803F20
:1037300000000000000000000AD7233C0000003F0A
:103740000000000000000000000000000000000079
:043750000000000075
:04000005080000ED02
:00000001FF
